{
  "_format": "hh-sol-artifact-1",
  "contractName": "MyEpicNFT",
  "sourceName": "contracts/MyEpicNFT.sol",
  "abi": [
    {
      "inputs": [],
      "stateMutability": "nonpayable",
      "type": "constructor"
    },
    {
      "anonymous": false,
      "inputs": [
        {
          "indexed": true,
          "internalType": "address",
          "name": "owner",
          "type": "address"
        },
        {
          "indexed": true,
          "internalType": "address",
          "name": "approved",
          "type": "address"
        },
        {
          "indexed": true,
          "internalType": "uint256",
          "name": "tokenId",
          "type": "uint256"
        }
      ],
      "name": "Approval",
      "type": "event"
    },
    {
      "anonymous": false,
      "inputs": [
        {
          "indexed": true,
          "internalType": "address",
          "name": "owner",
          "type": "address"
        },
        {
          "indexed": true,
          "internalType": "address",
          "name": "operator",
          "type": "address"
        },
        {
          "indexed": false,
          "internalType": "bool",
          "name": "approved",
          "type": "bool"
        }
      ],
      "name": "ApprovalForAll",
      "type": "event"
    },
    {
      "anonymous": false,
      "inputs": [
        {
          "indexed": false,
          "internalType": "address",
          "name": "sender",
          "type": "address"
        },
        {
          "indexed": false,
          "internalType": "uint256",
          "name": "tokenId",
          "type": "uint256"
        }
      ],
      "name": "NewEpicNFTMinted",
      "type": "event"
    },
    {
      "anonymous": false,
      "inputs": [
        {
          "indexed": true,
          "internalType": "address",
          "name": "from",
          "type": "address"
        },
        {
          "indexed": true,
          "internalType": "address",
          "name": "to",
          "type": "address"
        },
        {
          "indexed": true,
          "internalType": "uint256",
          "name": "tokenId",
          "type": "uint256"
        }
      ],
      "name": "Transfer",
      "type": "event"
    },
    {
      "inputs": [
        {
          "internalType": "address",
          "name": "to",
          "type": "address"
        },
        {
          "internalType": "uint256",
          "name": "tokenId",
          "type": "uint256"
        }
      ],
      "name": "approve",
      "outputs": [],
      "stateMutability": "nonpayable",
      "type": "function"
    },
    {
      "inputs": [
        {
          "internalType": "address",
          "name": "owner",
          "type": "address"
        }
      ],
      "name": "balanceOf",
      "outputs": [
        {
          "internalType": "uint256",
          "name": "",
          "type": "uint256"
        }
      ],
      "stateMutability": "view",
      "type": "function"
    },
    {
      "inputs": [
        {
          "internalType": "uint256",
          "name": "tokenId",
          "type": "uint256"
        }
      ],
      "name": "getApproved",
      "outputs": [
        {
          "internalType": "address",
          "name": "",
          "type": "address"
        }
      ],
      "stateMutability": "view",
      "type": "function"
    },
    {
      "inputs": [
        {
          "internalType": "address",
          "name": "owner",
          "type": "address"
        },
        {
          "internalType": "address",
          "name": "operator",
          "type": "address"
        }
      ],
      "name": "isApprovedForAll",
      "outputs": [
        {
          "internalType": "bool",
          "name": "",
          "type": "bool"
        }
      ],
      "stateMutability": "view",
      "type": "function"
    },
    {
      "inputs": [],
      "name": "makeAnEpicNFT",
      "outputs": [],
      "stateMutability": "nonpayable",
      "type": "function"
    },
    {
      "inputs": [],
      "name": "name",
      "outputs": [
        {
          "internalType": "string",
          "name": "",
          "type": "string"
        }
      ],
      "stateMutability": "view",
      "type": "function"
    },
    {
      "inputs": [
        {
          "internalType": "uint256",
          "name": "tokenId",
          "type": "uint256"
        }
      ],
      "name": "ownerOf",
      "outputs": [
        {
          "internalType": "address",
          "name": "",
          "type": "address"
        }
      ],
      "stateMutability": "view",
      "type": "function"
    },
    {
      "inputs": [
        {
          "internalType": "uint256",
          "name": "tokenId",
          "type": "uint256"
        }
      ],
      "name": "pickRandomColor",
      "outputs": [
        {
          "internalType": "string",
          "name": "",
          "type": "string"
        }
      ],
      "stateMutability": "view",
      "type": "function"
    },
    {
      "inputs": [
        {
          "internalType": "uint256",
          "name": "tokenId",
          "type": "uint256"
        }
      ],
      "name": "pickRandomFirstWord",
      "outputs": [
        {
          "internalType": "string",
          "name": "",
          "type": "string"
        }
      ],
      "stateMutability": "view",
      "type": "function"
    },
    {
      "inputs": [
        {
          "internalType": "uint256",
          "name": "tokenId",
          "type": "uint256"
        }
      ],
      "name": "pickRandomSecondWord",
      "outputs": [
        {
          "internalType": "string",
          "name": "",
          "type": "string"
        }
      ],
      "stateMutability": "view",
      "type": "function"
    },
    {
      "inputs": [
        {
          "internalType": "uint256",
          "name": "tokenId",
          "type": "uint256"
        }
      ],
      "name": "pickRandomThirdWord",
      "outputs": [
        {
          "internalType": "string",
          "name": "",
          "type": "string"
        }
      ],
      "stateMutability": "view",
      "type": "function"
    },
    {
      "inputs": [
        {
          "internalType": "address",
          "name": "from",
          "type": "address"
        },
        {
          "internalType": "address",
          "name": "to",
          "type": "address"
        },
        {
          "internalType": "uint256",
          "name": "tokenId",
          "type": "uint256"
        }
      ],
      "name": "safeTransferFrom",
      "outputs": [],
      "stateMutability": "nonpayable",
      "type": "function"
    },
    {
      "inputs": [
        {
          "internalType": "address",
          "name": "from",
          "type": "address"
        },
        {
          "internalType": "address",
          "name": "to",
          "type": "address"
        },
        {
          "internalType": "uint256",
          "name": "tokenId",
          "type": "uint256"
        },
        {
          "internalType": "bytes",
          "name": "_data",
          "type": "bytes"
        }
      ],
      "name": "safeTransferFrom",
      "outputs": [],
      "stateMutability": "nonpayable",
      "type": "function"
    },
    {
      "inputs": [
        {
          "internalType": "address",
          "name": "operator",
          "type": "address"
        },
        {
          "internalType": "bool",
          "name": "approved",
          "type": "bool"
        }
      ],
      "name": "setApprovalForAll",
      "outputs": [],
      "stateMutability": "nonpayable",
      "type": "function"
    },
    {
      "inputs": [
        {
          "internalType": "bytes4",
          "name": "interfaceId",
          "type": "bytes4"
        }
      ],
      "name": "supportsInterface",
      "outputs": [
        {
          "internalType": "bool",
          "name": "",
          "type": "bool"
        }
      ],
      "stateMutability": "view",
      "type": "function"
    },
    {
      "inputs": [],
      "name": "symbol",
      "outputs": [
        {
          "internalType": "string",
          "name": "",
          "type": "string"
        }
      ],
      "stateMutability": "view",
      "type": "function"
    },
    {
      "inputs": [
        {
          "internalType": "uint256",
          "name": "tokenId",
          "type": "uint256"
        }
      ],
      "name": "tokenURI",
      "outputs": [
        {
          "internalType": "string",
          "name": "",
          "type": "string"
        }
      ],
      "stateMutability": "view",
      "type": "function"
    },
    {
      "inputs": [
        {
          "internalType": "address",
          "name": "from",
          "type": "address"
        },
        {
          "internalType": "address",
          "name": "to",
          "type": "address"
        },
        {
          "internalType": "uint256",
          "name": "tokenId",
          "type": "uint256"
        }
      ],
      "name": "transferFrom",
      "outputs": [],
      "stateMutability": "nonpayable",
      "type": "function"
    }
  ],
  "bytecode": "0x608060405260405180610100016040528060d381526020016200452f60d391396008908051906020019062000036929190620007b6565b5060405180608001604052806056815260200162004602605691396009908051906020019062000068929190620007b6565b506040518060c001604052806040518060400160405280600781526020017f535441525455500000000000000000000000000000000000000000000000000081525081526020016040518060400160405280600681526020017f4c41554e4348000000000000000000000000000000000000000000000000000081525081526020016040518060400160405280600581526020017f524149534500000000000000000000000000000000000000000000000000000081525081526020016040518060400160405280600781526020017f554e49434f524e0000000000000000000000000000000000000000000000000081525081526020016040518060400160405280600481526020017f544553540000000000000000000000000000000000000000000000000000000081525081526020016040518060400160405280600681526020017f4944454154450000000000000000000000000000000000000000000000000000815250815250600a906006620001e692919062000847565b506040518060c001604052806040518060400160405280600a81526020017f425241494e53544f524d0000000000000000000000000000000000000000000081525081526020016040518060400160405280600881526020017f435553544f4d455200000000000000000000000000000000000000000000000081525081526020016040518060400160405280600781526020017f50524f445543540000000000000000000000000000000000000000000000000081525081526020016040518060400160405280600981526020017f4d41524b4554494e47000000000000000000000000000000000000000000000081525081526020016040518060400160405280600481526020017f5445414d0000000000000000000000000000000000000000000000000000000081525081526020016040518060400160405280600a81526020017f544543484352554e434800000000000000000000000000000000000000000000815250815250600b9060066200036492919062000847565b506040518060c001604052806040518060400160405280600281526020017f594300000000000000000000000000000000000000000000000000000000000081525081526020016040518060400160405280600681526020017f5055424c4943000000000000000000000000000000000000000000000000000081525081526020016040518060400160405280600381526020017f49504f000000000000000000000000000000000000000000000000000000000081525081526020016040518060400160405280600781526020017f524556454e55450000000000000000000000000000000000000000000000000081525081526020016040518060400160405280600a81526020017f4d41524b4554204341500000000000000000000000000000000000000000000081525081526020016040518060400160405280600981526020017f4341534820464c4f570000000000000000000000000000000000000000000000815250815250600c906006620004e292919062000847565b5060405180608001604052806040518060400160405280600381526020017f726564000000000000000000000000000000000000000000000000000000000081525081526020016040518060400160405280600481526020017f626c75650000000000000000000000000000000000000000000000000000000081525081526020016040518060400160405280600581526020017f626c61636b00000000000000000000000000000000000000000000000000000081525081526020016040518060400160405280600681526020017f79656c6c6f770000000000000000000000000000000000000000000000000000815250815250600d906004620005ea929190620008ae565b50348015620005f857600080fd5b506040518060400160405280600981526020017f5371756172654e465400000000000000000000000000000000000000000000008152506040518060400160405280600681526020017f535155415245000000000000000000000000000000000000000000000000000081525081600090805190602001906200067d929190620007b6565b50806001908051906020019062000696929190620007b6565b505050620006e46040518060400160405280601e81526020017f54686973206973206d79204e465420636f6e74726163742e20576f6168210000815250620006ea60201b620013951760201c565b62000acf565b6200078a81604051602401620007019190620009e3565b6040516020818303038152906040527f41304fac000000000000000000000000000000000000000000000000000000007bffffffffffffffffffffffffffffffffffffffffffffffffffffffff19166020820180517bffffffffffffffffffffffffffffffffffffffffffffffffffffffff83818316178352505050506200078d60201b60201c565b50565b60008151905060006a636f6e736f6c652e6c6f679050602083016000808483855afa5050505050565b828054620007c49062000a59565b90600052602060002090601f016020900481019282620007e8576000855562000834565b82601f106200080357805160ff191683800117855562000834565b8280016001018555821562000834579182015b828111156200083357825182559160200191906001019062000816565b5b50905062000843919062000915565b5090565b8280548282559060005260206000209081019282156200089b579160200282015b828111156200089a57825182908051906020019062000889929190620007b6565b509160200191906001019062000868565b5b509050620008aa919062000934565b5090565b82805482825590600052602060002090810192821562000902579160200282015b8281111562000901578251829080519060200190620008f0929190620007b6565b5091602001919060010190620008cf565b5b50905062000911919062000934565b5090565b5b808211156200093057600081600090555060010162000916565b5090565b5b808211156200095857600081816200094e91906200095c565b5060010162000935565b5090565b5080546200096a9062000a59565b6000825580601f106200097e57506200099f565b601f0160209004906000526020600020908101906200099e919062000915565b5b50565b6000620009af8262000a07565b620009bb818562000a12565b9350620009cd81856020860162000a23565b620009d88162000abe565b840191505092915050565b60006020820190508181036000830152620009ff8184620009a2565b905092915050565b600081519050919050565b600082825260208201905092915050565b60005b8381101562000a4357808201518184015260208101905062000a26565b8381111562000a53576000848401525b50505050565b6000600282049050600182168062000a7257607f821691505b6020821081141562000a895762000a8862000a8f565b5b50919050565b7f4e487b7100000000000000000000000000000000000000000000000000000000600052602260045260246000fd5b6000601f19601f8301169050919050565b613a508062000adf6000396000f3fe608060405234801561001057600080fd5b50600436106101165760003560e01c806370a08231116100a2578063b88d4fde11610071578063b88d4fde14610317578063c575757a14610333578063c87b56dd14610363578063de9d132f14610393578063e985e9c51461039d57610116565b806370a082311461027d57806395d89b41146102ad578063a22cb465146102cb578063b187301f146102e757610116565b806323b872dd116100e957806323b872dd146101b55780632de38d68146101d157806342842e0e14610201578063514dc8c61461021d5780636352211e1461024d57610116565b806301ffc9a71461011b57806306fdde031461014b578063081812fc14610169578063095ea7b314610199575b600080fd5b61013560048036038101906101309190612628565b6103cd565b60405161014291906132c6565b60405180910390f35b6101536104af565b60405161016091906132e1565b60405180910390f35b610183600480360381019061017e919061267a565b610541565b6040516101909190613236565b60405180910390f35b6101b360048036038101906101ae91906125ec565b6105c6565b005b6101cf60048036038101906101ca91906124e6565b6106de565b005b6101eb60048036038101906101e6919061267a565b61073e565b6040516101f891906132e1565b60405180910390f35b61021b600480360381019061021691906124e6565b61085c565b005b6102376004803603810190610232919061267a565b61087c565b60405161024491906132e1565b60405180910390f35b6102676004803603810190610262919061267a565b61099a565b6040516102749190613236565b60405180910390f35b61029760048036038101906102929190612481565b610a4c565b6040516102a49190613541565b60405180910390f35b6102b5610b04565b6040516102c291906132e1565b60405180910390f35b6102e560048036038101906102e091906125b0565b610b96565b005b61030160048036038101906102fc919061267a565b610d17565b60405161030e91906132e1565b60405180910390f35b610331600480360381019061032c9190612535565b610e35565b005b61034d6004803603810190610348919061267a565b610e97565b60405161035a91906132e1565b60405180910390f35b61037d6004803603810190610378919061267a565b610fb5565b60405161038a91906132e1565b60405180910390f35b61039b611107565b005b6103b760048036038101906103b291906124aa565b611301565b6040516103c491906132c6565b60405180910390f35b60007f80ac58cd000000000000000000000000000000000000000000000000000000007bffffffffffffffffffffffffffffffffffffffffffffffffffffffff1916827bffffffffffffffffffffffffffffffffffffffffffffffffffffffff1916148061049857507f5b5e139f000000000000000000000000000000000000000000000000000000007bffffffffffffffffffffffffffffffffffffffffffffffffffffffff1916827bffffffffffffffffffffffffffffffffffffffffffffffffffffffff1916145b806104a857506104a78261142e565b5b9050919050565b6060600080546104be906137e0565b80601f01602080910402602001604051908101604052809291908181526020018280546104ea906137e0565b80156105375780601f1061050c57610100808354040283529160200191610537565b820191906000526020600020905b81548152906001019060200180831161051a57829003601f168201915b5050505050905090565b600061054c82611498565b61058b576040517f08c379a0000000000000000000000000000000000000000000000000000000008152600401610582906134a1565b60405180910390fd5b6004600083815260200190815260200160002060009054906101000a900473ffffffffffffffffffffffffffffffffffffffff169050919050565b60006105d18261099a565b90508073ffffffffffffffffffffffffffffffffffffffff168373ffffffffffffffffffffffffffffffffffffffff161415610642576040517f08c379a000000000000000000000000000000000000000000000000000000000815260040161063990613501565b60405180910390fd5b8073ffffffffffffffffffffffffffffffffffffffff16610661611504565b73ffffffffffffffffffffffffffffffffffffffff161480610690575061068f8161068a611504565b611301565b5b6106cf576040517f08c379a00000000000000000000000000000000000000000000000000000000081526004016106c6906133e1565b60405180910390fd5b6106d9838361150c565b505050565b6106ef6106e9611504565b826115c5565b61072e576040517f08c379a000000000000000000000000000000000000000000000000000000000815260040161072590613521565b60405180910390fd5b6107398383836116a3565b505050565b6060600061077261074e846118ff565b60405160200161075e91906131d0565b604051602081830303815290604052611aac565b9050600a8054905081610785919061385b565b9050600a81815481106107c1577f4e487b7100000000000000000000000000000000000000000000000000000000600052603260045260246000fd5b9060005260206000200180546107d6906137e0565b80601f0160208091040260200160405190810160405280929190818152602001828054610802906137e0565b801561084f5780601f106108245761010080835404028352916020019161084f565b820191906000526020600020905b81548152906001019060200180831161083257829003601f168201915b5050505050915050919050565b61087783838360405180602001604052806000815250610e35565b505050565b606060006108b061088c846118ff565b60405160200161089c9190613214565b604051602081830303815290604052611aac565b9050600d80549050816108c3919061385b565b9050600d81815481106108ff577f4e487b7100000000000000000000000000000000000000000000000000000000600052603260045260246000fd5b906000526020600020018054610914906137e0565b80601f0160208091040260200160405190810160405280929190818152602001828054610940906137e0565b801561098d5780601f106109625761010080835404028352916020019161098d565b820191906000526020600020905b81548152906001019060200180831161097057829003601f168201915b5050505050915050919050565b6000806002600084815260200190815260200160002060009054906101000a900473ffffffffffffffffffffffffffffffffffffffff169050600073ffffffffffffffffffffffffffffffffffffffff168173ffffffffffffffffffffffffffffffffffffffff161415610a43576040517f08c379a0000000000000000000000000000000000000000000000000000000008152600401610a3a90613421565b60405180910390fd5b80915050919050565b60008073ffffffffffffffffffffffffffffffffffffffff168273ffffffffffffffffffffffffffffffffffffffff161415610abd576040517f08c379a0000000000000000000000000000000000000000000000000000000008152600401610ab490613401565b60405180910390fd5b600360008373ffffffffffffffffffffffffffffffffffffffff1673ffffffffffffffffffffffffffffffffffffffff168152602001908152602001600020549050919050565b606060018054610b13906137e0565b80601f0160208091040260200160405190810160405280929190818152602001828054610b3f906137e0565b8015610b8c5780601f10610b6157610100808354040283529160200191610b8c565b820191906000526020600020905b815481529060010190602001808311610b6f57829003601f168201915b5050505050905090565b610b9e611504565b73ffffffffffffffffffffffffffffffffffffffff168273ffffffffffffffffffffffffffffffffffffffff161415610c0c576040517f08c379a0000000000000000000000000000000000000000000000000000000008152600401610c03906133a1565b60405180910390fd5b8060056000610c19611504565b73ffffffffffffffffffffffffffffffffffffffff1673ffffffffffffffffffffffffffffffffffffffff16815260200190815260200160002060008473ffffffffffffffffffffffffffffffffffffffff1673ffffffffffffffffffffffffffffffffffffffff16815260200190815260200160002060006101000a81548160ff0219169083151502179055508173ffffffffffffffffffffffffffffffffffffffff16610cc6611504565b73ffffffffffffffffffffffffffffffffffffffff167f17307eab39ab6107e8899845ad3d59bd9653f200f220920489ca2b5937696c3183604051610d0b91906132c6565b60405180910390a35050565b60606000610d4b610d27846118ff565b604051602001610d379190613169565b604051602081830303815290604052611aac565b9050600b8054905081610d5e919061385b565b9050600b8181548110610d9a577f4e487b7100000000000000000000000000000000000000000000000000000000600052603260045260246000fd5b906000526020600020018054610daf906137e0565b80601f0160208091040260200160405190810160405280929190818152602001828054610ddb906137e0565b8015610e285780601f10610dfd57610100808354040283529160200191610e28565b820191906000526020600020905b815481529060010190602001808311610e0b57829003601f168201915b5050505050915050919050565b610e46610e40611504565b836115c5565b610e85576040517f08c379a0000000000000000000000000000000000000000000000000000000008152600401610e7c90613521565b60405180910390fd5b610e9184848484611adf565b50505050565b60606000610ecb610ea7846118ff565b604051602001610eb79190613147565b604051602081830303815290604052611aac565b9050600c8054905081610ede919061385b565b9050600c8181548110610f1a577f4e487b7100000000000000000000000000000000000000000000000000000000600052603260045260246000fd5b906000526020600020018054610f2f906137e0565b80601f0160208091040260200160405190810160405280929190818152602001828054610f5b906137e0565b8015610fa85780601f10610f7d57610100808354040283529160200191610fa8565b820191906000526020600020905b815481529060010190602001808311610f8b57829003601f168201915b5050505050915050919050565b6060610fc082611498565b610fff576040517f08c379a0000000000000000000000000000000000000000000000000000000008152600401610ff690613481565b60405180910390fd5b600060066000848152602001908152602001600020805461101f906137e0565b80601f016020809104026020016040519081016040528092919081815260200182805461104b906137e0565b80156110985780601f1061106d57610100808354040283529160200191611098565b820191906000526020600020905b81548152906001019060200180831161107b57829003601f168201915b5050505050905060006110a9611b3b565b90506000815114156110bf578192505050611102565b6000825111156110f45780826040516020016110dc9291906130a9565b60405160208183030381529060405292505050611102565b6110fd84611b52565b925050505b919050565b60006111136007611bf9565b905060006111208261073e565b9050600061112d83610d17565b9050600061113a84610e97565b90506000838383604051602001611153939291906130cd565b6040516020818303038152906040529050600061116f8661087c565b9050600060088260098560405160200161118c94939291906130fe565b604051602081830303815290604052905060006111d1846111ac84611c07565b6040516020016111bd92919061318b565b604051602081830303815290604052611c07565b90506000816040516020016111e691906131f2565b60405160208183030381529060405290506112356040518060400160405280601581526020017f0a2d2d2d2d2d2d2d2d2d2d2d2d2d2d2d2d2d2d2d2d0000000000000000000000815250611395565b61123e81611395565b61127c6040518060400160405280601581526020017f2d2d2d2d2d2d2d2d2d2d2d2d2d2d2d2d2d2d2d2d0a0000000000000000000000815250611395565b611286338a611dc5565b6112908982611de3565b61129a6007611e57565b6112bd6040518060600160405280602581526020016139b6602591398a33611e6d565b7febb98688741ffa4c7589bf325de30cf7becb63de567842e1ccdb6cb949fdc82c338a6040516112ee92919061329d565b60405180910390a1505050505050505050565b6000600560008473ffffffffffffffffffffffffffffffffffffffff1673ffffffffffffffffffffffffffffffffffffffff16815260200190815260200160002060008373ffffffffffffffffffffffffffffffffffffffff1673ffffffffffffffffffffffffffffffffffffffff16815260200190815260200160002060009054906101000a900460ff16905092915050565b61142b816040516024016113a991906132e1565b6040516020818303038152906040527f41304fac000000000000000000000000000000000000000000000000000000007bffffffffffffffffffffffffffffffffffffffffffffffffffffffff19166020820180517bffffffffffffffffffffffffffffffffffffffffffffffffffffffff8381831617835250505050611f0c565b50565b60007f01ffc9a7000000000000000000000000000000000000000000000000000000007bffffffffffffffffffffffffffffffffffffffffffffffffffffffff1916827bffffffffffffffffffffffffffffffffffffffffffffffffffffffff1916149050919050565b60008073ffffffffffffffffffffffffffffffffffffffff166002600084815260200190815260200160002060009054906101000a900473ffffffffffffffffffffffffffffffffffffffff1673ffffffffffffffffffffffffffffffffffffffff1614159050919050565b600033905090565b816004600083815260200190815260200160002060006101000a81548173ffffffffffffffffffffffffffffffffffffffff021916908373ffffffffffffffffffffffffffffffffffffffff160217905550808273ffffffffffffffffffffffffffffffffffffffff1661157f8361099a565b73ffffffffffffffffffffffffffffffffffffffff167f8c5be1e5ebec7d5bd14f71427d1e84f3dd0314c0f7b2291e5b200ac8c7c3b92560405160405180910390a45050565b60006115d082611498565b61160f576040517f08c379a0000000000000000000000000000000000000000000000000000000008152600401611606906133c1565b60405180910390fd5b600061161a8361099a565b90508073ffffffffffffffffffffffffffffffffffffffff168473ffffffffffffffffffffffffffffffffffffffff16148061168957508373ffffffffffffffffffffffffffffffffffffffff1661167184610541565b73ffffffffffffffffffffffffffffffffffffffff16145b8061169a57506116998185611301565b5b91505092915050565b8273ffffffffffffffffffffffffffffffffffffffff166116c38261099a565b73ffffffffffffffffffffffffffffffffffffffff1614611719576040517f08c379a0000000000000000000000000000000000000000000000000000000008152600401611710906134c1565b60405180910390fd5b600073ffffffffffffffffffffffffffffffffffffffff168273ffffffffffffffffffffffffffffffffffffffff161415611789576040517f08c379a000000000000000000000000000000000000000000000000000000000815260040161178090613381565b60405180910390fd5b611794838383611f35565b61179f60008261150c565b6001600360008573ffffffffffffffffffffffffffffffffffffffff1673ffffffffffffffffffffffffffffffffffffffff16815260200190815260200160002060008282546117ef91906136f6565b925050819055506001600360008473ffffffffffffffffffffffffffffffffffffffff1673ffffffffffffffffffffffffffffffffffffffff16815260200190815260200160002060008282546118469190613615565b92505081905550816002600083815260200190815260200160002060006101000a81548173ffffffffffffffffffffffffffffffffffffffff021916908373ffffffffffffffffffffffffffffffffffffffff160217905550808273ffffffffffffffffffffffffffffffffffffffff168473ffffffffffffffffffffffffffffffffffffffff167fddf252ad1be2c89b69c2b068fc378daa952ba7f163c4a11628f55a4df523b3ef60405160405180910390a4505050565b60606000821415611947576040518060400160405280600181526020017f30000000000000000000000000000000000000000000000000000000000000008152509050611aa7565b600082905060005b6000821461197957808061196290613812565b915050600a82611972919061366b565b915061194f565b60008167ffffffffffffffff8111156119bb577f4e487b7100000000000000000000000000000000000000000000000000000000600052604160045260246000fd5b6040519080825280601f01601f1916602001820160405280156119ed5781602001600182028036833780820191505090505b5090505b60008514611aa057600182611a0691906136f6565b9150600a85611a15919061385b565b6030611a219190613615565b60f81b818381518110611a5d577f4e487b7100000000000000000000000000000000000000000000000000000000600052603260045260246000fd5b60200101907effffffffffffffffffffffffffffffffffffffffffffffffffffffffffffff1916908160001a905350600a85611a99919061366b565b94506119f1565b8093505050505b919050565b600081604051602001611abf9190613092565b6040516020818303038152906040528051906020012060001c9050919050565b611aea8484846116a3565b611af684848484611f3a565b611b35576040517f08c379a0000000000000000000000000000000000000000000000000000000008152600401611b2c90613341565b60405180910390fd5b50505050565b606060405180602001604052806000815250905090565b6060611b5d82611498565b611b9c576040517f08c379a0000000000000000000000000000000000000000000000000000000008152600401611b93906134e1565b60405180910390fd5b6000611ba6611b3b565b90506000815111611bc65760405180602001604052806000815250611bf1565b80611bd0846118ff565b604051602001611be19291906130a9565b6040516020818303038152906040525b915050919050565b600081600001549050919050565b60606000825190506000811415611c305760405180602001604052806000815250915050611dc0565b60006003600283611c419190613615565b611c4b919061366b565b6004611c57919061369c565b90506000602082611c689190613615565b67ffffffffffffffff811115611ca7577f4e487b7100000000000000000000000000000000000000000000000000000000600052604160045260246000fd5b6040519080825280601f01601f191660200182016040528015611cd95781602001600182028036833780820191505090505b50905060006040518060600160405280604081526020016139db604091399050600181016020830160005b86811015611d7d5760038101905062ffffff818a015116603f8160121c168401518060081b905060ff603f83600c1c1686015116810190508060081b905060ff603f8360061c1686015116810190508060081b905060ff603f831686015116810190508060e01b90508084526004840193505050611d04565b506003860660018114611d975760028114611da757611db2565b613d3d60f01b6002830352611db2565b603d60f81b60018303525b508484525050819450505050505b919050565b611ddf8282604051806020016040528060008152506120d1565b5050565b611dec82611498565b611e2b576040517f08c379a0000000000000000000000000000000000000000000000000000000008152600401611e2290613441565b60405180910390fd5b80600660008481526020019081526020016000209080519060200190611e5292919061230d565b505050565b6001816000016000828254019250508190555050565b611f07838383604051602401611e8593929190613303565b6040516020818303038152906040527fe3849f79000000000000000000000000000000000000000000000000000000007bffffffffffffffffffffffffffffffffffffffffffffffffffffffff19166020820180517bffffffffffffffffffffffffffffffffffffffffffffffffffffffff8381831617835250505050611f0c565b505050565b60008151905060006a636f6e736f6c652e6c6f679050602083016000808483855afa5050505050565b505050565b6000611f5b8473ffffffffffffffffffffffffffffffffffffffff1661212c565b156120c4578373ffffffffffffffffffffffffffffffffffffffff1663150b7a02611f84611504565b8786866040518563ffffffff1660e01b8152600401611fa69493929190613251565b602060405180830381600087803b158015611fc057600080fd5b505af1925050508015611ff157506040513d601f19601f82011682018060405250810190611fee9190612651565b60015b612074573d8060008114612021576040519150601f19603f3d011682016040523d82523d6000602084013e612026565b606091505b5060008151141561206c576040517f08c379a000000000000000000000000000000000000000000000000000000000815260040161206390613341565b60405180910390fd5b805181602001fd5b63150b7a0260e01b7bffffffffffffffffffffffffffffffffffffffffffffffffffffffff1916817bffffffffffffffffffffffffffffffffffffffffffffffffffffffff1916149150506120c9565b600190505b949350505050565b6120db838361213f565b6120e86000848484611f3a565b612127576040517f08c379a000000000000000000000000000000000000000000000000000000000815260040161211e90613341565b60405180910390fd5b505050565b600080823b905060008111915050919050565b600073ffffffffffffffffffffffffffffffffffffffff168273ffffffffffffffffffffffffffffffffffffffff1614156121af576040517f08c379a00000000000000000000000000000000000000000000000000000000081526004016121a690613461565b60405180910390fd5b6121b881611498565b156121f8576040517f08c379a00000000000000000000000000000000000000000000000000000000081526004016121ef90613361565b60405180910390fd5b61220460008383611f35565b6001600360008473ffffffffffffffffffffffffffffffffffffffff1673ffffffffffffffffffffffffffffffffffffffff16815260200190815260200160002060008282546122549190613615565b92505081905550816002600083815260200190815260200160002060006101000a81548173ffffffffffffffffffffffffffffffffffffffff021916908373ffffffffffffffffffffffffffffffffffffffff160217905550808273ffffffffffffffffffffffffffffffffffffffff16600073ffffffffffffffffffffffffffffffffffffffff167fddf252ad1be2c89b69c2b068fc378daa952ba7f163c4a11628f55a4df523b3ef60405160405180910390a45050565b828054612319906137e0565b90600052602060002090601f01602090048101928261233b5760008555612382565b82601f1061235457805160ff1916838001178555612382565b82800160010185558215612382579182015b82811115612381578251825591602001919060010190612366565b5b50905061238f9190612393565b5090565b5b808211156123ac576000816000905550600101612394565b5090565b60006123c36123be8461358d565b61355c565b9050828152602081018484840111156123db57600080fd5b6123e684828561379e565b509392505050565b6000813590506123fd81613959565b92915050565b60008135905061241281613970565b92915050565b60008135905061242781613987565b92915050565b60008151905061243c81613987565b92915050565b600082601f83011261245357600080fd5b81356124638482602086016123b0565b91505092915050565b60008135905061247b8161399e565b92915050565b60006020828403121561249357600080fd5b60006124a1848285016123ee565b91505092915050565b600080604083850312156124bd57600080fd5b60006124cb858286016123ee565b92505060206124dc858286016123ee565b9150509250929050565b6000806000606084860312156124fb57600080fd5b6000612509868287016123ee565b935050602061251a868287016123ee565b925050604061252b8682870161246c565b9150509250925092565b6000806000806080858703121561254b57600080fd5b6000612559878288016123ee565b945050602061256a878288016123ee565b935050604061257b8782880161246c565b925050606085013567ffffffffffffffff81111561259857600080fd5b6125a487828801612442565b91505092959194509250565b600080604083850312156125c357600080fd5b60006125d1858286016123ee565b92505060206125e285828601612403565b9150509250929050565b600080604083850312156125ff57600080fd5b600061260d858286016123ee565b925050602061261e8582860161246c565b9150509250929050565b60006020828403121561263a57600080fd5b600061264884828501612418565b91505092915050565b60006020828403121561266357600080fd5b60006126718482850161242d565b91505092915050565b60006020828403121561268c57600080fd5b600061269a8482850161246c565b91505092915050565b6126ac8161372a565b82525050565b6126bb8161373c565b82525050565b60006126cc826135d2565b6126d681856135e8565b93506126e68185602086016137ad565b6126ef81613948565b840191505092915050565b6000612705826135dd565b61270f81856135f9565b935061271f8185602086016137ad565b61272881613948565b840191505092915050565b600061273e826135dd565b612748818561360a565b93506127588185602086016137ad565b80840191505092915050565b60008154612771816137e0565b61277b818661360a565b9450600182166000811461279657600181146127a7576127da565b60ff198316865281860193506127da565b6127b0856135bd565b60005b838110156127d2578154818901526001820191506020810190506127b3565b838801955050505b50505092915050565b60006127f06032836135f9565b91507f4552433732313a207472616e7366657220746f206e6f6e20455243373231526560008301527f63656976657220696d706c656d656e74657200000000000000000000000000006020830152604082019050919050565b6000612856601c836135f9565b91507f4552433732313a20746f6b656e20616c7265616479206d696e746564000000006000830152602082019050919050565b6000612896600a8361360a565b91507f54484952445f574f5244000000000000000000000000000000000000000000006000830152600a82019050919050565b60006128d66024836135f9565b91507f4552433732313a207472616e7366657220746f20746865207a65726f2061646460008301527f72657373000000000000000000000000000000000000000000000000000000006020830152604082019050919050565b600061293c6019836135f9565b91507f4552433732313a20617070726f766520746f2063616c6c6572000000000000006000830152602082019050919050565b600061297c60638361360a565b91507f222c20226465736372697074696f6e223a20224120686967686c79206163636c60008301527f61696d656420636f6c6c656374696f6e206f6620737175617265732e222c202260208301527f696d616765223a2022646174613a696d6167652f7376672b786d6c3b6261736560408301527f36342c00000000000000000000000000000000000000000000000000000000006060830152606382019050919050565b6000612a2e600b8361360a565b91507f5345434f4e445f574f52440000000000000000000000000000000000000000006000830152600b82019050919050565b6000612a6e602c836135f9565b91507f4552433732313a206f70657261746f7220717565727920666f72206e6f6e657860008301527f697374656e7420746f6b656e00000000000000000000000000000000000000006020830152604082019050919050565b6000612ad4600d8361360a565b91507f3c2f746578743e3c2f7376673e000000000000000000000000000000000000006000830152600d82019050919050565b6000612b146038836135f9565b91507f4552433732313a20617070726f76652063616c6c6572206973206e6f74206f7760008301527f6e6572206e6f7220617070726f76656420666f7220616c6c00000000000000006020830152604082019050919050565b6000612b7a602a836135f9565b91507f4552433732313a2062616c616e636520717565727920666f7220746865207a6560008301527f726f2061646472657373000000000000000000000000000000000000000000006020830152604082019050919050565b6000612be06029836135f9565b91507f4552433732313a206f776e657220717565727920666f72206e6f6e657869737460008301527f656e7420746f6b656e00000000000000000000000000000000000000000000006020830152604082019050919050565b6000612c46602e836135f9565b91507f45524337323155524953746f726167653a2055524920736574206f66206e6f6e60008301527f6578697374656e7420746f6b656e0000000000000000000000000000000000006020830152604082019050919050565b6000612cac60028361360a565b91507f227d0000000000000000000000000000000000000000000000000000000000006000830152600282019050919050565b6000612cec6020836135f9565b91507f4552433732313a206d696e7420746f20746865207a65726f20616464726573736000830152602082019050919050565b6000612d2c6031836135f9565b91507f45524337323155524953746f726167653a2055524920717565727920666f722060008301527f6e6f6e6578697374656e7420746f6b656e0000000000000000000000000000006020830152604082019050919050565b6000612d92602c836135f9565b91507f4552433732313a20617070726f76656420717565727920666f72206e6f6e657860008301527f697374656e7420746f6b656e00000000000000000000000000000000000000006020830152604082019050919050565b6000612df86029836135f9565b91507f4552433732313a207472616e73666572206f6620746f6b656e2074686174206960008301527f73206e6f74206f776e00000000000000000000000000000000000000000000006020830152604082019050919050565b6000612e5e602f836135f9565b91507f4552433732314d657461646174613a2055524920717565727920666f72206e6f60008301527f6e6578697374656e7420746f6b656e00000000000000000000000000000000006020830152604082019050919050565b6000612ec4600a8361360a565b91507f7b226e616d65223a2022000000000000000000000000000000000000000000006000830152600a82019050919050565b6000612f046021836135f9565b91507f4552433732313a20617070726f76616c20746f2063757272656e74206f776e6560008301527f72000000000000000000000000000000000000000000000000000000000000006020830152604082019050919050565b6000612f6a600a8361360a565b91507f46495253545f574f5244000000000000000000000000000000000000000000006000830152600a82019050919050565b6000612faa601d8361360a565b91507f646174613a6170706c69636174696f6e2f6a736f6e3b6261736536342c0000006000830152601d82019050919050565b6000612fea6031836135f9565b91507f4552433732313a207472616e736665722063616c6c6572206973206e6f74206f60008301527f776e6572206e6f7220617070726f7665640000000000000000000000000000006020830152604082019050919050565b600061305060058361360a565b91507f434f4c4f520000000000000000000000000000000000000000000000000000006000830152600582019050919050565b61308c81613794565b82525050565b600061309e8284612733565b915081905092915050565b60006130b58285612733565b91506130c18284612733565b91508190509392505050565b60006130d98286612733565b91506130e58285612733565b91506130f18284612733565b9150819050949350505050565b600061310a8287612764565b91506131168286612733565b91506131228285612764565b915061312e8284612733565b915061313982612ac7565b915081905095945050505050565b600061315282612889565b915061315e8284612733565b915081905092915050565b600061317482612a21565b91506131808284612733565b915081905092915050565b600061319682612eb7565b91506131a28285612733565b91506131ad8261296f565b91506131b98284612733565b91506131c482612c9f565b91508190509392505050565b60006131db82612f5d565b91506131e78284612733565b915081905092915050565b60006131fd82612f9d565b91506132098284612733565b915081905092915050565b600061321f82613043565b915061322b8284612733565b915081905092915050565b600060208201905061324b60008301846126a3565b92915050565b600060808201905061326660008301876126a3565b61327360208301866126a3565b6132806040830185613083565b818103606083015261329281846126c1565b905095945050505050565b60006040820190506132b260008301856126a3565b6132bf6020830184613083565b9392505050565b60006020820190506132db60008301846126b2565b92915050565b600060208201905081810360008301526132fb81846126fa565b905092915050565b6000606082019050818103600083015261331d81866126fa565b905061332c6020830185613083565b61333960408301846126a3565b949350505050565b6000602082019050818103600083015261335a816127e3565b9050919050565b6000602082019050818103600083015261337a81612849565b9050919050565b6000602082019050818103600083015261339a816128c9565b9050919050565b600060208201905081810360008301526133ba8161292f565b9050919050565b600060208201905081810360008301526133da81612a61565b9050919050565b600060208201905081810360008301526133fa81612b07565b9050919050565b6000602082019050818103600083015261341a81612b6d565b9050919050565b6000602082019050818103600083015261343a81612bd3565b9050919050565b6000602082019050818103600083015261345a81612c39565b9050919050565b6000602082019050818103600083015261347a81612cdf565b9050919050565b6000602082019050818103600083015261349a81612d1f565b9050919050565b600060208201905081810360008301526134ba81612d85565b9050919050565b600060208201905081810360008301526134da81612deb565b9050919050565b600060208201905081810360008301526134fa81612e51565b9050919050565b6000602082019050818103600083015261351a81612ef7565b9050919050565b6000602082019050818103600083015261353a81612fdd565b9050919050565b60006020820190506135566000830184613083565b92915050565b6000604051905081810181811067ffffffffffffffff8211171561358357613582613919565b5b8060405250919050565b600067ffffffffffffffff8211156135a8576135a7613919565b5b601f19601f8301169050602081019050919050565b60008190508160005260206000209050919050565b600081519050919050565b600081519050919050565b600082825260208201905092915050565b600082825260208201905092915050565b600081905092915050565b600061362082613794565b915061362b83613794565b9250827fffffffffffffffffffffffffffffffffffffffffffffffffffffffffffffffff038211156136605761365f61388c565b5b828201905092915050565b600061367682613794565b915061368183613794565b925082613691576136906138bb565b5b828204905092915050565b60006136a782613794565b91506136b283613794565b9250817fffffffffffffffffffffffffffffffffffffffffffffffffffffffffffffffff04831182151516156136eb576136ea61388c565b5b828202905092915050565b600061370182613794565b915061370c83613794565b92508282101561371f5761371e61388c565b5b828203905092915050565b600061373582613774565b9050919050565b60008115159050919050565b60007fffffffff0000000000000000000000000000000000000000000000000000000082169050919050565b600073ffffffffffffffffffffffffffffffffffffffff82169050919050565b6000819050919050565b82818337600083830152505050565b60005b838110156137cb5780820151818401526020810190506137b0565b838111156137da576000848401525b50505050565b600060028204905060018216806137f857607f821691505b6020821081141561380c5761380b6138ea565b5b50919050565b600061381d82613794565b91507fffffffffffffffffffffffffffffffffffffffffffffffffffffffffffffffff8214156138505761384f61388c565b5b600182019050919050565b600061386682613794565b915061387183613794565b925082613881576138806138bb565b5b828206905092915050565b7f4e487b7100000000000000000000000000000000000000000000000000000000600052601160045260246000fd5b7f4e487b7100000000000000000000000000000000000000000000000000000000600052601260045260246000fd5b7f4e487b7100000000000000000000000000000000000000000000000000000000600052602260045260246000fd5b7f4e487b7100000000000000000000000000000000000000000000000000000000600052604160045260246000fd5b6000601f19601f8301169050919050565b6139628161372a565b811461396d57600080fd5b50565b6139798161373c565b811461398457600080fd5b50565b61399081613748565b811461399b57600080fd5b50565b6139a781613794565b81146139b257600080fd5b5056fe416e204e465420772f20494420257320686173206265656e206d696e74656420746f2025734142434445464748494a4b4c4d4e4f505152535455565758595a6162636465666768696a6b6c6d6e6f707172737475767778797a303132333435363738392b2fa264697066735822122021673d9c9c61b09c0046bb37258ecacf238d1afba35cb3f514f647f706cb308b64736f6c634300080000333c73766720786d6c6e733d27687474703a2f2f7777772e77332e6f72672f323030302f73766727207072657365727665417370656374526174696f3d27784d696e594d696e206d656574272076696577426f783d273020302033353020333530273e3c7374796c653e2e62617365207b2066696c6c3a2077686974653b20666f6e742d66616d696c793a2073657269663b20666f6e742d73697a653a20323470783b207d3c2f7374796c653e3c726563742077696474683d273130302527206865696768743d2731303025272066696c6c3d27272f3e3c7465787420783d273530252720793d273530252720636c6173733d27626173652720646f6d696e616e742d626173656c696e653d276d6964646c652720746578742d616e63686f723d276d6964646c65273e",
  "linkReferences": {},
  "deployedLinkReferences": {}
}